{
  "contractName": "lovePass",
  "abi": [
    {
      "constant": true,
      "inputs": [
        {
          "name": "",
          "type": "address"
        }
      ],
      "name": "perlist",
      "outputs": [
        {
          "name": "name",
          "type": "string"
        },
        {
          "name": "passHash",
          "type": "bytes32"
        }
      ],
      "payable": false,
      "stateMutability": "view",
      "type": "function"
    },
    {
      "constant": true,
      "inputs": [
        {
          "name": "",
          "type": "address"
        }
      ],
      "name": "ngolist",
      "outputs": [
        {
          "name": "name",
          "type": "string"
        },
        {
          "name": "intr",
          "type": "string"
        },
        {
          "name": "passHash",
          "type": "bytes32"
        }
      ],
      "payable": false,
      "stateMutability": "view",
      "type": "function"
    },
    {
      "anonymous": false,
      "inputs": [
        {
          "indexed": false,
          "name": "ngo",
          "type": "string"
        },
        {
          "indexed": false,
          "name": "addr",
          "type": "address"
        }
      ],
      "name": "createNgo",
      "type": "event"
    },
    {
      "anonymous": false,
      "inputs": [
        {
          "indexed": false,
          "name": "ngo",
          "type": "string"
        },
        {
          "indexed": false,
          "name": "addr",
          "type": "address"
        }
      ],
      "name": "createPer",
      "type": "event"
    },
    {
      "anonymous": false,
      "inputs": [
        {
          "indexed": false,
          "name": "ng",
          "type": "address"
        },
        {
          "indexed": false,
          "name": "eventna",
          "type": "string"
        },
        {
          "indexed": false,
          "name": "addr",
          "type": "address"
        }
      ],
      "name": "addDona",
      "type": "event"
    }
  ],
  "bytecode": "0x608060405234801561001057600080fd5b50610495806100206000396000f30060806040526004361061004c576000357c0100000000000000000000000000000000000000000000000000000000900463ffffffff168063243430831461005157806329d9ae461461011c575b600080fd5b34801561005d57600080fd5b50610092600480360381019080803573ffffffffffffffffffffffffffffffffffffffff169060200190929190505050610253565b60405180806020018360001916600019168152602001828103825284818151815260200191508051906020019080838360005b838110156100e05780820151818401526020810190506100c5565b50505050905090810190601f16801561010d5780820380516001836020036101000a031916815260200191505b50935050505060405180910390f35b34801561012857600080fd5b5061015d600480360381019080803573ffffffffffffffffffffffffffffffffffffffff16906020019092919050505061030f565b6040518080602001806020018460001916600019168152602001838103835286818151815260200191508051906020019080838360005b838110156101af578082015181840152602081019050610194565b50505050905090810190601f1680156101dc5780820380516001836020036101000a031916815260200191505b50838103825285818151815260200191508051906020019080838360005b838110156102155780820151818401526020810190506101fa565b50505050905090810190601f1680156102425780820380516001836020036101000a031916815260200191505b509550505050505060405180910390f35b6001602052806000526040600020600091509050806000018054600181600116156101000203166002900480601f0160208091040260200160405190810160405280929190818152602001828054600181600116156101000203166002900480156102ff5780601f106102d4576101008083540402835291602001916102ff565b820191906000526020600020905b8154815290600101906020018083116102e257829003601f168201915b5050505050908060010154905082565b6000602052806000526040600020600091509050806000018054600181600116156101000203166002900480601f0160208091040260200160405190810160405280929190818152602001828054600181600116156101000203166002900480156103bb5780601f10610390576101008083540402835291602001916103bb565b820191906000526020600020905b81548152906001019060200180831161039e57829003601f168201915b505050505090806001018054600181600116156101000203166002900480601f0160208091040260200160405190810160405280929190818152602001828054600181600116156101000203166002900480156104595780601f1061042e57610100808354040283529160200191610459565b820191906000526020600020905b81548152906001019060200180831161043c57829003601f168201915b50505050509080600201549050835600a165627a7a723058208fc56748e2d0e0b02582475f734b58359d624bd52631ea202cd493672c7e55ce0029",
  "source": "pragma solidity ^0.4.24;\n\ncontract lovePass {\n\n    struct ngo {\n        string name;\n        string intr;\n        bytes32 passHash;\n        string[] doNaList;\n        mapping (string => address) doList;\n    }\n\n    struct per {\n        string name;\n        bytes32 passHash;\n    }\n\n\tmapping (address => ngo) public ngolist;\n\tmapping (address => per) public perlist;\n\n\tevent createNgo(string ngo, address addr);\n\tevent createPer(string ngo, address addr);\n\tevent addDona(address ng, string eventna, address addr);\n\n    // -----------------------------------------------------------------------\n\n\tfunction crNgo(string nam, string pass, string intr, address ad) internal {\n\t    string[] memory tmp = new string[](1);\n        tmp[0] = \" \";\n\t    ngo memory tmpNgo = ngo(nam, intr, sha256(abi.encodePacked(pass)), tmp);\n\t    ngolist[ad] = tmpNgo;\n\t\temit createNgo(nam, ad);\n\t}\n\n\tfunction ngoAddDona(address ng, string name, address donaAd) internal {\n\t    ngolist[ng].doList[name] = donaAd;\n\t    ngolist[ng].doNaList.push(name);\n\t    emit addDona(ng, name, donaAd);\n\t}\n\n\tfunction reDoNaList(address ng) internal view returns (string[]) {\n\t    return ngolist[ng].doNaList;\n\t}\n\n\tfunction reDoAdList(address ng, string na) internal view returns (address){\n\t    return ngolist[ng].doList[na];\n\t}\n\n\t// -------------------------------------------------------------------------\n\n\tfunction crPer(string nam, string pass, address ad) internal {\n\t    per memory tmpPer = per(nam, sha256(abi.encodePacked(pass)));\n\t    perlist[ad] = tmpPer;\n\t    emit createPer(nam, ad);\n\t}\n\n}\n",
  "sourcePath": "/Users/wave/Downloads/Pohang/lovePass/contracts/Migrations.sol",
  "compiler": {
    "name": "solc",
    "version": "0.4.24+commit.e67f0147.Emscripten.clang"
  },
  "schemaVersion": "2.0.1",
  "updatedAt": "2018-08-19T13:07:47.282Z"
}