{
  "contractName": "Migrations",
  "abi": [
    {
      "constant": true,
      "inputs": [
        {
          "name": "",
          "type": "address"
        }
      ],
      "name": "perlist",
      "outputs": [
        {
          "name": "name",
          "type": "string"
        },
        {
          "name": "passHash",
          "type": "bytes32"
        }
      ],
      "payable": false,
      "stateMutability": "view",
      "type": "function"
    },
    {
      "constant": true,
      "inputs": [
        {
          "name": "",
          "type": "address"
        }
      ],
      "name": "ngolist",
      "outputs": [
        {
          "name": "name",
          "type": "string"
        },
        {
          "name": "intr",
          "type": "string"
        },
        {
          "name": "passHash",
          "type": "bytes32"
        }
      ],
      "payable": false,
      "stateMutability": "view",
      "type": "function"
    },
    {
      "constant": true,
      "inputs": [],
      "name": "last_completed_migration",
      "outputs": [
        {
          "name": "",
          "type": "uint256"
        }
      ],
      "payable": false,
      "stateMutability": "view",
      "type": "function"
    },
    {
      "inputs": [],
      "payable": false,
      "stateMutability": "nonpayable",
      "type": "constructor"
    },
    {
      "anonymous": false,
      "inputs": [
        {
          "indexed": false,
          "name": "ngo",
          "type": "string"
        },
        {
          "indexed": false,
          "name": "addr",
          "type": "address"
        }
      ],
      "name": "createNgo",
      "type": "event"
    },
    {
      "anonymous": false,
      "inputs": [
        {
          "indexed": false,
          "name": "ngo",
          "type": "string"
        },
        {
          "indexed": false,
          "name": "addr",
          "type": "address"
        }
      ],
      "name": "createPer",
      "type": "event"
    },
    {
      "anonymous": false,
      "inputs": [
        {
          "indexed": false,
          "name": "ng",
          "type": "address"
        },
        {
          "indexed": false,
          "name": "eventna",
          "type": "string"
        },
        {
          "indexed": false,
          "name": "addr",
          "type": "address"
        }
      ],
      "name": "addDona",
      "type": "event"
    },
    {
      "constant": false,
      "inputs": [
        {
          "name": "completed",
          "type": "uint256"
        }
      ],
      "name": "setCompleted",
      "outputs": [],
      "payable": false,
      "stateMutability": "nonpayable",
      "type": "function"
    },
    {
      "constant": true,
      "inputs": [],
      "name": "reNgoList",
      "outputs": [
        {
          "name": "",
          "type": "address[]"
        }
      ],
      "payable": false,
      "stateMutability": "view",
      "type": "function"
    }
  ],
  "bytecode": "0x608060405234801561001057600080fd5b50610618806100206000396000f30060806040526004361061006d576000357c0100000000000000000000000000000000000000000000000000000000900463ffffffff168063243430831461007257806329d9ae461461013d5780633b9ac82914610274578063445df0ac146102e0578063fdacd5761461030b575b600080fd5b34801561007e57600080fd5b506100b3600480360381019080803573ffffffffffffffffffffffffffffffffffffffff169060200190929190505050610338565b60405180806020018360001916600019168152602001828103825284818151815260200191508051906020019080838360005b838110156101015780820151818401526020810190506100e6565b50505050905090810190601f16801561012e5780820380516001836020036101000a031916815260200191505b50935050505060405180910390f35b34801561014957600080fd5b5061017e600480360381019080803573ffffffffffffffffffffffffffffffffffffffff1690602001909291905050506103f4565b6040518080602001806020018460001916600019168152602001838103835286818151815260200191508051906020019080838360005b838110156101d05780820151818401526020810190506101b5565b50505050905090810190601f1680156101fd5780820380516001836020036101000a031916815260200191505b50838103825285818151815260200191508051906020019080838360005b8381101561023657808201518184015260208101905061021b565b50505050905090810190601f1680156102635780820380516001836020036101000a031916815260200191505b509550505050505060405180910390f35b34801561028057600080fd5b5061028961054e565b6040518080602001828103825283818151815260200191508051906020019060200280838360005b838110156102cc5780820151818401526020810190506102b1565b505050509050019250505060405180910390f35b3480156102ec57600080fd5b506102f56105dc565b6040518082815260200191505060405180910390f35b34801561031757600080fd5b50610336600480360381019080803590602001909291905050506105e2565b005b6003602052806000526040600020600091509050806000018054600181600116156101000203166002900480601f0160208091040260200160405190810160405280929190818152602001828054600181600116156101000203166002900480156103e45780601f106103b9576101008083540402835291602001916103e4565b820191906000526020600020905b8154815290600101906020018083116103c757829003601f168201915b5050505050908060010154905082565b6002602052806000526040600020600091509050806000018054600181600116156101000203166002900480601f0160208091040260200160405190810160405280929190818152602001828054600181600116156101000203166002900480156104a05780601f10610475576101008083540402835291602001916104a0565b820191906000526020600020905b81548152906001019060200180831161048357829003601f168201915b505050505090806001018054600181600116156101000203166002900480601f01602080910402602001604051908101604052809291908181526020018280546001816001161561010002031660029004801561053e5780601f106105135761010080835404028352916020019161053e565b820191906000526020600020905b81548152906001019060200180831161052157829003601f168201915b5050505050908060020154905083565b606060008054806020026020016040519081016040528092919081815260200182805480156105d257602002820191906000526020600020905b8160009054906101000a900473ffffffffffffffffffffffffffffffffffffffff1673ffffffffffffffffffffffffffffffffffffffff1681526020019060010190808311610588575b5050505050905090565b60015481565b80600181905550505600a165627a7a723058209b848f8fbd118198d46a76e3c5067ec7c4cb6bf159af12f64d9b287b9ff87c860029",
  "source": "pragma solidity ^0.4.24;\n\ncontract Migrations {\n\n  struct ngo {\n      string name;\n      string intr;\n      bytes32 passHash;\n      string[] doNaList;\n      mapping (string => address) doList;\n  }\n\n  struct per {\n      string name;\n      bytes32 passHash;\n  }\n\n  address[] ngoAdList;\n  uint public last_completed_migration;\n\tmapping (address => ngo) public ngolist;\n\tmapping (address => per) public perlist;\n\n\tevent createNgo(string ngo, address addr);\n\tevent createPer(string ngo, address addr);\n\tevent addDona(address ng, string eventna, address addr);\n\n  constructor() public {\n\t    return;\n\t}\n\n  function setCompleted(uint completed) public {\n    last_completed_migration = completed;\n  }\n\n    // -----------------------------------------------------------------------\n\n\tfunction crNgo(string nam, string pass, string intr, address ad) internal {\n\t  string[] memory tmp = new string[](1);\n    tmp[0] = \" \";\n\t  ngo memory tmpNgo = ngo(nam, intr, sha256(abi.encodePacked(pass)), tmp);\n\t  ngolist[ad] = tmpNgo;\n    ngoAdList.push(ad);\n\t\temit createNgo(nam, ad);\n\t}\n\n\tfunction ngoAddDona(address ng, string name, address donaAd) internal {\n\t    ngolist[ng].doList[name] = donaAd;\n\t    ngolist[ng].doNaList.push(name);\n\t    emit addDona(ng, name, donaAd);\n\t}\n\n\tfunction reDoNaList(address ng) internal view returns (string[]) {\n\t    return ngolist[ng].doNaList;\n\t}\n\n\tfunction reDoAdList(address ng, string na) internal view returns (address){\n\t    return ngolist[ng].doList[na];\n\t}\n\n  function reNgoList() public view returns (address[]) {\n  \t    return ngoAdList;\n  \t}\n\n\t// -------------------------------------------------------------------------\n\n\tfunction crPer(string nam, string pass, address ad) internal {\n\t    per memory tmpPer = per(nam, sha256(abi.encodePacked(pass)));\n\t    perlist[ad] = tmpPer;\n\t    emit createPer(nam, ad);\n\t}\n\n}\n",
  "sourcePath": "/Users/wave/Downloads/Pohang/lovePass/contracts/Migrations.sol",
  "compiler": {
    "name": "solc",
    "version": "0.4.24+commit.e67f0147.Emscripten.clang"
  },
  "schemaVersion": "2.0.1",
  "updatedAt": "2018-08-19T13:32:06.684Z"
}