{
  "contractName": "Migrations",
  "abi": [
    {
      "constant": true,
      "inputs": [
        {
          "name": "",
          "type": "address"
        }
      ],
      "name": "perlist",
      "outputs": [
        {
          "name": "name",
          "type": "string"
        },
        {
          "name": "passHash",
          "type": "bytes32"
        }
      ],
      "payable": false,
      "stateMutability": "view",
      "type": "function"
    },
    {
      "constant": true,
      "inputs": [
        {
          "name": "",
          "type": "address"
        }
      ],
      "name": "ngolist",
      "outputs": [
        {
          "name": "name",
          "type": "string"
        },
        {
          "name": "intr",
          "type": "string"
        },
        {
          "name": "passHash",
          "type": "bytes32"
        }
      ],
      "payable": false,
      "stateMutability": "view",
      "type": "function"
    },
    {
      "constant": true,
      "inputs": [],
      "name": "last_completed_migration",
      "outputs": [
        {
          "name": "",
          "type": "uint256"
        }
      ],
      "payable": false,
      "stateMutability": "view",
      "type": "function"
    },
    {
      "inputs": [],
      "payable": false,
      "stateMutability": "nonpayable",
      "type": "constructor"
    },
    {
      "anonymous": false,
      "inputs": [
        {
          "indexed": false,
          "name": "ngo",
          "type": "string"
        },
        {
          "indexed": false,
          "name": "addr",
          "type": "address"
        }
      ],
      "name": "createNgo",
      "type": "event"
    },
    {
      "anonymous": false,
      "inputs": [
        {
          "indexed": false,
          "name": "ngo",
          "type": "string"
        },
        {
          "indexed": false,
          "name": "addr",
          "type": "address"
        }
      ],
      "name": "createPer",
      "type": "event"
    },
    {
      "anonymous": false,
      "inputs": [
        {
          "indexed": false,
          "name": "ng",
          "type": "address"
        },
        {
          "indexed": false,
          "name": "eventna",
          "type": "string"
        },
        {
          "indexed": false,
          "name": "addr",
          "type": "address"
        }
      ],
      "name": "addDona",
      "type": "event"
    },
    {
      "constant": false,
      "inputs": [
        {
          "name": "completed",
          "type": "uint256"
        }
      ],
      "name": "setCompleted",
      "outputs": [],
      "payable": false,
      "stateMutability": "nonpayable",
      "type": "function"
    },
    {
      "constant": false,
      "inputs": [
        {
          "name": "nam",
          "type": "string"
        },
        {
          "name": "pass",
          "type": "string"
        },
        {
          "name": "intr",
          "type": "string"
        },
        {
          "name": "ad",
          "type": "address"
        }
      ],
      "name": "crNgo",
      "outputs": [],
      "payable": false,
      "stateMutability": "nonpayable",
      "type": "function"
    },
    {
      "constant": false,
      "inputs": [
        {
          "name": "ng",
          "type": "address"
        },
        {
          "name": "name",
          "type": "string"
        },
        {
          "name": "donaAd",
          "type": "address"
        }
      ],
      "name": "ngoAddDona",
      "outputs": [],
      "payable": false,
      "stateMutability": "nonpayable",
      "type": "function"
    },
    {
      "constant": true,
      "inputs": [
        {
          "name": "ng",
          "type": "address"
        }
      ],
      "name": "reDoNaList",
      "outputs": [
        {
          "name": "",
          "type": "string[]"
        }
      ],
      "payable": false,
      "stateMutability": "view",
      "type": "function"
    },
    {
      "constant": true,
      "inputs": [
        {
          "name": "ng",
          "type": "address"
        },
        {
          "name": "na",
          "type": "string"
        }
      ],
      "name": "reDoAdList",
      "outputs": [
        {
          "name": "",
          "type": "address"
        }
      ],
      "payable": false,
      "stateMutability": "view",
      "type": "function"
    },
    {
      "constant": true,
      "inputs": [],
      "name": "reNgoList",
      "outputs": [
        {
          "name": "",
          "type": "address[]"
        }
      ],
      "payable": false,
      "stateMutability": "view",
      "type": "function"
    }
  ],
  "bytecode": "0x608060405234801561001057600080fd5b50611575806100206000396000f300608060405260043610610099576000357c0100000000000000000000000000000000000000000000000000000000900463ffffffff168063243430831461009e57806329d9ae46146100dc5780633b9ac8291461011b578063445df0ac14610146578063946d35d414610171578063a42ad839146101ae578063c2b4e6cb146101d7578063d46c9bd014610200578063fdacd5761461023d575b600080fd5b3480156100aa57600080fd5b506100c560048036036100c09190810190610f27565b610266565b6040516100d3929190611337565b60405180910390f35b3480156100e857600080fd5b5061010360048036036100fe9190810190610f27565b610322565b60405161011293929190611367565b60405180910390f35b34801561012757600080fd5b5061013061047c565b60405161013d91906112c3565b60405180910390f35b34801561015257600080fd5b5061015b61050a565b60405161016891906113ac565b60405180910390f35b34801561017d57600080fd5b5061019860048036036101939190810190610f50565b610510565b6040516101a5919061126a565b60405180910390f35b3480156101ba57600080fd5b506101d560048036036101d09190810190610fa4565b6105e6565b005b3480156101e357600080fd5b506101fe60048036036101f99190810190611034565b61078f565b005b34801561020c57600080fd5b5061022760048036036102229190810190610f27565b610b3b565b60405161023491906112e5565b60405180910390f35b34801561024957600080fd5b50610264600480360361025f91908101906110df565b610c66565b005b6003602052806000526040600020600091509050806000018054600181600116156101000203166002900480601f0160208091040260200160405190810160405280929190818152602001828054600181600116156101000203166002900480156103125780601f106102e757610100808354040283529160200191610312565b820191906000526020600020905b8154815290600101906020018083116102f557829003601f168201915b5050505050908060010154905082565b6002602052806000526040600020600091509050806000018054600181600116156101000203166002900480601f0160208091040260200160405190810160405280929190818152602001828054600181600116156101000203166002900480156103ce5780601f106103a3576101008083540402835291602001916103ce565b820191906000526020600020905b8154815290600101906020018083116103b157829003601f168201915b505050505090806001018054600181600116156101000203166002900480601f01602080910402602001604051908101604052809291908181526020018280546001816001161561010002031660029004801561046c5780601f106104415761010080835404028352916020019161046c565b820191906000526020600020905b81548152906001019060200180831161044f57829003601f168201915b5050505050908060020154905083565b6060600080548060200260200160405190810160405280929190818152602001828054801561050057602002820191906000526020600020905b8160009054906101000a900473ffffffffffffffffffffffffffffffffffffffff1673ffffffffffffffffffffffffffffffffffffffff16815260200190600101908083116104b6575b5050505050905090565b60015481565b6000600260008473ffffffffffffffffffffffffffffffffffffffff1673ffffffffffffffffffffffffffffffffffffffff168152602001908152602001600020600401826040518082805190602001908083835b60208310151561058a5780518252602082019150602081019050602083039250610565565b6001836020036101000a038019825116818451168082178552505050505050905001915050908152602001604051809103902060009054906101000a900473ffffffffffffffffffffffffffffffffffffffff16905092915050565b80600260008573ffffffffffffffffffffffffffffffffffffffff1673ffffffffffffffffffffffffffffffffffffffff168152602001908152602001600020600401836040518082805190602001908083835b60208310151561065f578051825260208201915060208101905060208303925061063a565b6001836020036101000a038019825116818451168082178552505050505050905001915050908152602001604051809103902060006101000a81548173ffffffffffffffffffffffffffffffffffffffff021916908373ffffffffffffffffffffffffffffffffffffffff160217905550600260008473ffffffffffffffffffffffffffffffffffffffff1673ffffffffffffffffffffffffffffffffffffffff16815260200190815260200160002060030182908060018154018082558091505090600182039060005260206000200160009091929091909150908051906020019061074d929190610c70565b50507f3f867c56f87c0eac859f3c36c5331cb4fed9e872b3702559e80ded1949af661b83838360405161078293929190611285565b60405180910390a1505050565b6000606061079b610cf0565b600092505b60008054905083101561082c578373ffffffffffffffffffffffffffffffffffffffff166000848154811015156107d357fe5b9060005260206000200160009054906101000a900473ffffffffffffffffffffffffffffffffffffffff1673ffffffffffffffffffffffffffffffffffffffff16141561081f57610b32565b82806001019350506107a0565b600160405190808252806020026020018201604052801561086157816020015b606081526020019060019003908161084c5790505b5091506040805190810160405280600181526020017f20000000000000000000000000000000000000000000000000000000000000008152508260008151811015156108a957fe5b906020019060200201819052506080604051908101604052808881526020018681526020016002886040516020018082805190602001908083835b60208310151561090957805182526020820191506020810190506020830392506108e4565b6001836020036101000a0380198251168184511680821785525050505050509050019150506040516020818303038152906040526040518082805190602001908083835b602083101515610972578051825260208201915060208101905060208303925061094d565b6001836020036101000a0380198251168184511680821785525050505050509050019150506020604051808303816000865af11580156109b6573d6000803e3d6000fd5b5050506040513d601f19601f820116820180604052506109d9919081019061100b565b60001916815260200183815250905080600260008673ffffffffffffffffffffffffffffffffffffffff1673ffffffffffffffffffffffffffffffffffffffff1681526020019081526020016000206000820151816000019080519060200190610a44929190610d1c565b506020820151816001019080519060200190610a61929190610d1c565b50604082015181600201906000191690556060820151816003019080519060200190610a8e929190610d9c565b5090505060008490806001815401808255809150509060018203906000526020600020016000909192909190916101000a81548173ffffffffffffffffffffffffffffffffffffffff021916908373ffffffffffffffffffffffffffffffffffffffff160217905550507ff496d41f821ac58b8b54958ce49ac2467828a094822951572f2ee4717895e48f8785604051610b29929190611307565b60405180910390a15b50505050505050565b6060600260008373ffffffffffffffffffffffffffffffffffffffff1673ffffffffffffffffffffffffffffffffffffffff168152602001908152602001600020600301805480602002602001604051908101604052809291908181526020016000905b82821015610c5b578382906000526020600020018054600181600116156101000203166002900480601f016020809104026020016040519081016040528092919081815260200182805460018160011615610100020316600290048015610c475780601f10610c1c57610100808354040283529160200191610c47565b820191906000526020600020905b815481529060010190602001808311610c2a57829003601f168201915b505050505081526020019060010190610b9f565b505050509050919050565b8060018190555050565b828054600181600116156101000203166002900490600052602060002090601f016020900481019282601f10610cb157805160ff1916838001178555610cdf565b82800160010185558215610cdf579182015b82811115610cde578251825591602001919060010190610cc3565b5b509050610cec9190610dfc565b5090565b608060405190810160405280606081526020016060815260200160008019168152602001606081525090565b828054600181600116156101000203166002900490600052602060002090601f016020900481019282601f10610d5d57805160ff1916838001178555610d8b565b82800160010185558215610d8b579182015b82811115610d8a578251825591602001919060010190610d6f565b5b509050610d989190610dfc565b5090565b828054828255906000526020600020908101928215610deb579160200282015b82811115610dea578251829080519060200190610dda929190610d1c565b5091602001919060010190610dbc565b5b509050610df89190610e21565b5090565b610e1e91905b80821115610e1a576000816000905550600101610e02565b5090565b90565b610e4a91905b80821115610e465760008181610e3d9190610e4d565b50600101610e27565b5090565b90565b50805460018160011615610100020316600290046000825580601f10610e735750610e92565b601f016020900490600052602060002090810190610e919190610dfc565b5b50565b6000610ea182356114b4565b905092915050565b6000610eb582516114d4565b905092915050565b600082601f8301121515610ed057600080fd5b8135610ee3610ede826113f4565b6113c7565b91508082526020830160208301858383011115610eff57600080fd5b610f0a8382846114e8565b50505092915050565b6000610f1f82356114de565b905092915050565b600060208284031215610f3957600080fd5b6000610f4784828501610e95565b91505092915050565b60008060408385031215610f6357600080fd5b6000610f7185828601610e95565b925050602083013567ffffffffffffffff811115610f8e57600080fd5b610f9a85828601610ebd565b9150509250929050565b600080600060608486031215610fb957600080fd5b6000610fc786828701610e95565b935050602084013567ffffffffffffffff811115610fe457600080fd5b610ff086828701610ebd565b925050604061100186828701610e95565b9150509250925092565b60006020828403121561101d57600080fd5b600061102b84828501610ea9565b91505092915050565b6000806000806080858703121561104a57600080fd5b600085013567ffffffffffffffff81111561106457600080fd5b61107087828801610ebd565b945050602085013567ffffffffffffffff81111561108d57600080fd5b61109987828801610ebd565b935050604085013567ffffffffffffffff8111156110b657600080fd5b6110c287828801610ebd565b92505060606110d387828801610e95565b91505092959194509250565b6000602082840312156110f157600080fd5b60006110ff84828501610f13565b91505092915050565b61111181611480565b82525050565b60006111228261143a565b80845260208401935061113483611420565b60005b828110156111665761114a868351611108565b61115382611466565b9150602086019550600181019050611137565b50849250505092915050565b600061117d82611445565b808452602084019350836020820285016111968561142d565b60005b848110156111cf5783830388526111b1838351611225565b92506111bc82611473565b9150602088019750600181019050611199565b508196508694505050505092915050565b6111e9816114a0565b82525050565b60006111fa8261145b565b80845261120e8160208601602086016114f7565b6112178161152a565b602085010191505092915050565b600061123082611450565b8084526112448160208601602086016114f7565b61124d8161152a565b602085010191505092915050565b611264816114aa565b82525050565b600060208201905061127f6000830184611108565b92915050565b600060608201905061129a6000830186611108565b81810360208301526112ac81856111ef565b90506112bb6040830184611108565b949350505050565b600060208201905081810360008301526112dd8184611117565b905092915050565b600060208201905081810360008301526112ff8184611172565b905092915050565b6000604082019050818103600083015261132181856111ef565b90506113306020830184611108565b9392505050565b600060408201905081810360008301526113518185611225565b905061136060208301846111e0565b9392505050565b600060608201905081810360008301526113818186611225565b905081810360208301526113958185611225565b90506113a460408301846111e0565b949350505050565b60006020820190506113c1600083018461125b565b92915050565b6000604051905081810181811067ffffffffffffffff821117156113ea57600080fd5b8060405250919050565b600067ffffffffffffffff82111561140b57600080fd5b601f19601f8301169050602081019050919050565b6000602082019050919050565b6000602082019050919050565b600081519050919050565b600081519050919050565b600081519050919050565b600081519050919050565b6000602082019050919050565b6000602082019050919050565b600073ffffffffffffffffffffffffffffffffffffffff82169050919050565b6000819050919050565b6000819050919050565b600073ffffffffffffffffffffffffffffffffffffffff82169050919050565b6000819050919050565b6000819050919050565b82818337600083830152505050565b60005b838110156115155780820151818401526020810190506114fa565b83811115611524576000848401525b50505050565b6000601f19601f83011690509190505600a265627a7a72305820c3c3fa6d2b746c1a98a1d74874fe1200a6fda41fb6939c4a2a382b2b02100c706c6578706572696d656e74616cf50037",
  "source": "pragma experimental ABIEncoderV2;\npragma solidity ^0.4.24;\n\ncontract Migrations {\n\n  struct ngo {\n      string name;\n      string intr;\n      bytes32 passHash;\n      string[] doNaList;\n      mapping (string => address) doList;\n  }\n\n  struct per {\n      string name;\n      bytes32 passHash;\n  }\n\n  address[] ngoAdList;\n  uint public last_completed_migration;\n\tmapping (address => ngo) public ngolist;\n\tmapping (address => per) public perlist;\n\n\tevent createNgo(string ngo, address addr);\n\tevent createPer(string ngo, address addr);\n\tevent addDona(address ng, string eventna, address addr);\n\n  constructor() public {\n\t    return;\n\t}\n\n  function setCompleted(uint completed) public {\n    last_completed_migration = completed;\n  }\n\n    // -----------------------------------------------------------------------\n\n\tfunction crNgo(string nam, string pass, string intr, address ad) public {\n\t    for (uint i = 0; i < ngoAdList.length; i++)\n\t    {\n\t        if (ngoAdList[i] == ad) { return; }\n\t        else {\n\t            continue;\n\t        }\n\t    }\n\t  string[] memory tmp = new string[](1);\n    tmp[0] = \" \";\n\t  ngo memory tmpNgo = ngo(nam, intr, sha256(abi.encodePacked(pass)), tmp);\n\t  ngolist[ad] = tmpNgo;\n        ngoAdList.push(ad);\n\t\temit createNgo(nam, ad);\n\t}\n\n\tfunction ngoAddDona(address ng, string name, address donaAd) public {\n\t    ngolist[ng].doList[name] = donaAd;\n\t    ngolist[ng].doNaList.push(name);\n\t    emit addDona(ng, name, donaAd);\n\t}\n\n\tfunction reDoNaList(address ng) public view returns (string[]) {\n\t    return ngolist[ng].doNaList;\n\t}\n\n\tfunction reDoAdList(address ng, string na) public view returns (address){\n\t    return ngolist[ng].doList[na];\n\t}\n\n  function reNgoList() public view returns (address[]) {\n  \t    return ngoAdList;\n  \t}\n\n\t// -------------------------------------------------------------------------\n\n\tfunction crPer(string nam, string pass, address ad) internal {\n\t    per memory tmpPer = per(nam, sha256(abi.encodePacked(pass)));\n\t    perlist[ad] = tmpPer;\n\t    emit createPer(nam, ad);\n\t}\n\n}\n",
  "sourcePath": "/Users/wave/Downloads/Pohang/lovePass/contracts/Migrations.sol",
  "compiler": {
    "name": "solc",
    "version": "0.4.24+commit.e67f0147.Emscripten.clang"
  },
  "schemaVersion": "2.0.1",
  "updatedAt": "2018-08-21T14:30:03.705Z"
}